:020000040800F2
:10000000B80B0020CD000008812C00082D25000829
:1000100000000000000000000000000000000000E0
:10002000000000000000000000000000CB2C0008D1
:100030000000000000000000C92C0008052D000889
:10004000DF00000800000000DF000008DF000008FB
:10005000DF000008DF000008DF000008DF00000804
:1000600000000000F9060008090700082107000841
:10007000DF000008DF000008DF00000800000000CB
:10008000DF000008DF000008DF000008DF000008D4
:10009000DF000008DF000008DF000008DF000008C4
:1000A000DF000008DF000008DF000008DF000008B4
:1000B000DF000008DF0000080348854600F046FA2C
:1000C00000480047513E0008B80B00200448804714
:1000D00004480047FEE7FEE7FEE7FEE7FEE7FEE72F
:1000E000AD2D0008B900000830B50B4601460020D0
:1000F0002022012409E00D46D5409D4205D31D462E
:100100009540491B2546954040191546521E002D25
:10011000F1DC30BD70B500242546002801DA012449
:100120004042002901DA01254942FFF7DDFFAC42D8
:1001300000D04042002C00D0494270BD10B5202AAA
:1001400004DB0846203AD040002110BD0B46D340C6
:10015000D0402024A21A91400843194610BDF0B5A2
:100160001FB40646002082B005464024019100904D
:100170001BE0019922460F463046FFF7DFFF049A45
:10018000059B801A994110D310461946224600F06B
:10019000EFF9361A8F410197224601200021009F76
:1001A00000F0E6F938184D4100902046641E002802
:1001B000DFDC019B00982946324607B0F0BD000005
:1001C000F0B507460846584087B0C00F0490480075
:1001D0000E46590040084908BC1A884105D23846E5
:1001E00031461E4617460B4602465800400810434B
:1001F0004CD0300D039040055900400D490D05903D
:10020000401A0290402872DA18030121000B0905F8
:100210000843019004980092002805D001995242A9
:100220000020884100920190029840210A1A019909
:10023000009800F09DF905460C466B4607CB00F090
:10024000A7F9C0197141039A0E0D0023D717564024
:100250001A467A40164344D0049A002A2DD0029AB6
:10026000012A039A15DC1205C01A914101263605B0
:10027000001C7141D20F059ED20700930192029695
:100280002A46234600F0A4F907B0F0BD38463146AF
:10029000FAE71605224A0F46B218C01AB7410121E3
:1002A0000905001C4F4100187F411146181879417B
:1002B000E20F10436D19644113E0E2076D08154326
:1002C0006408C2071443039A01261205C01A91411B
:1002D0003605001C7141CE07400830434908C0185C
:1002E00051412A46234600F066F9CDE7FFE704981E
:1002F00001224000C117121A00238B410498314695
:10030000C417381AA141EEE730B40124E407634072
:1003100030BC55E730B40124E407614030BC4FE7FE
:100320000000E0FFF0B51FB488B00B9909980024D5
:1003300048400999C00F490049080991C0070B9925
:100340000090490049080B9109990898A64608436E
:100350001CD00B990A98084318D009980124400032
:10036000420D4800410D099824050003000B20436D
:1003700009900B980003000B20430B9050181C4968
:100380004018002201901446104605E00020014666
:100390000DB0F0BD032801DA034600E003239C46BC
:1003A000C11A0AAE0AE05F0008ADED5B4F00F75BD3
:1003B0007D430027AA187C41491C5B1E6145F2DD84
:1003C000410004AB5A522104120C0A43240C401C75
:1003D0000828DFDB01980290009970460191009097
:1003E000059B049A0799069800F0F2F8D0E7000000
:1003F0000DFCFFFFF0B50C465C4085B0E40FE40750
:1004000003944C00002664085900944649080246AB
:100410000296224321D062460A431ED06200570D45
:100420004A000E032303550D012402462C492405DE
:10043000781B1B0B360B4018234326436146009064
:100440001C46501AB44103D30098401C009002E0AF
:10045000921800985B41002803DA0020014605B09D
:10046000F0BD0020012109050746864611E06446DB
:100470001D46141BB54106D36546521BB341744655
:1004800007430C43A646CD07400849082843921865
:100490005B4105460D43EAD11046184313D0604630
:1004A000194650407140084306D06046101AB341C7
:1004B00006D20122002306E000220123DB0702E02E
:1004C0000122D2435310009874460105381C614143
:1004D000029C039D0019694100F06DF8BFE7000020
:1004E000FD0300004A0009030123090B1B05194302
:1004F0000A4B10B5520D9A4202DA0020014610BD97
:10050000064B34339A4203DC9A1AFFF717FE10BDEC
:10051000034BD21800F02CF810BD0000FF030000C0
:10052000CDFBFFFF10B5002904DB0124E4074042A6
:100530008C412146002B04DB1C460123DB07524281
:10054000A341994200D1904210BD0000064C012504
:10055000064E05E0E36807CC2B430C3C984710346B
:10056000B442F7D3FFF7ACFD30470008504700080E
:1005700010B5202A04DB0146203A9140002010BD2E
:10058000914020239C1A0346E3401943904010BD3C
:1005900010B5202A06DBCB170846203A1041C117B8
:1005A0000B4306E00B461341D0402024A21A914091
:1005B0000843194610BD10B5002B08DA0024401C72
:1005C000614192185B411A4301D14008400010BDBF
:1005D000F0B51FB482B005460C0003D0084602F007
:1005E000A1FF02E002F09EFF20300246009021466B
:1005F0002846FFF7BDFF049B059A04460F461843A3
:100600001143084314D0184610431BD000984021D2
:100610000A1A18460599FFF791FD05460E46009AFD
:1006200005990498FFF7A4FF084305D0012004E0D2
:100630002046394607B0F0BD0020C11705430E43E0
:100640002C43374300990E986305401A7905E40A54
:1006500000220C43FD0A0A3002D500200146E9E7DA
:100660000105101969410C9C0D9D00196941FFF7A6
:10067000A2FFDFE7F8B504460020009020688168FB
:100680008907890F012905D10168C9072CD1C168E3
:10069000090429D48168154A102611400125002932
:1006A00015D1816829438160124811490068FFF71C
:1006B0001BFD00E0401E00900028FBD100F0C0FEB2
:1006C00007460CE000F0BCFEC01B022807D9606C96
:1006D00030436064A06C2843A0640120F8BD20680A
:1006E0000068C043C007EDD10020F8BD17000080AE
:1006F00040420F000400002010B5024800F003FD46
:1007000010BD00001C05002010B5034800F0FBFCE4
:10071000024800F0F8FC10BDD8040020500400206E
:1007200010B5034800F0EFFC024800F0ECFC10BDEF
:10073000940400200C04002010B50446006805490C
:1007400040181421FFF7D0FC800020640248E063C9
:1007500010BD0000F8FFFDBF0000024010B51848B2
:1007600001F0CFFC002809D101211548090381605F
:100770008910016101F0E4FC002801D0012010BDC6
:100780000B2000F0DFFE0A2000F0DCFE0E490D48D1
:10079000C8600D49001F403988630A48283801683D
:1007A0000522914301600949C16081684322920199
:1007B000114381600168012211430160002010BDD6
:1007C0004C0200202838014040000240409C0000BC
:1007D00010B5154A11680423994311601349D1607B
:1007E00013490180134901238B6044880C6084887D
:1007F0000C60C4880C6004890C6009684181D1696F
:10080000490601D4022010BD0B494C6864086400FD
:100810004C600C248C600861486818434860402094
:100820001062002010BD000000380140409C000014
:1008300055550000003002404000024009488169DF
:10084000490849008161FF210D31C16106494162BA
:10085000064A0A80FF3101318A81816901221143F0
:10086000816170474000024060050020FFFF0000EA
:10087000F8B507462748C069274C284E284D206008
:1008800086281BD80DD06168814206D100F0D8FDC2
:10089000A168401A14282FD803E0606000F0D0FD52
:1008A000A06020480188B1421DD0C188872923D388
:1008B00069894B2920D30680083022E00146FF39A0
:1008C0000D390DD06168814206D100F0B9FDA168F3
:1008D000401A142810D803E0606000F0B1FDA06059
:1008E000A889B04201D10220F8BD688A872803D3C5
:1008F0000D48C08A4B2801D20120F8BD0848AE81BE
:10090000143001F03FFE0128F7D007483830386036
:100910000020F8BD400002400C000020FFFF000056
:1009200060060020600500206007002010B50B2045
:1009300000F008FE0F490E480862FF200C490E30F7
:100940000C3988600A484C38C16842151143C160AF
:100950000A4A09491180FF3201329181016A11224C
:1009600011430162016801221143016010BD0000C2
:100970004C40014040000240FFFF000060050020A5
:10098000FF2105480D31C16104494162816901229D
:100990001143816170470000400002406005002063
:1009A000490010B50143054B9000482401431C70D9
:1009B0005970022002F08AF910BD000008000020E2
:1009C00010B5064B00014900182408431C70104361
:1009D0005870022002F07AF910BD000008000020D3
:1009E00010B5054808210170002141708170C17067
:1009F000042002F06BF910BD0800002010B50A2099
:100A000000F0A0FD05490448486203482838816881
:100A100080221143816010BD284800400000024040
:100A200010B5074C082121700A21FFF75DFB054A2C
:100A3000515C6170105CA070032002F047F910BD9A
:100A4000080000202447000810B5094800F008F904
:100A5000002804D1064800F0C5FA002801D0012082
:100A600010BD04488168102211438160002010BD30
:100A70001C01002000240140F8B507461A484068D0
:100A80000221000A08401949085C00282AD00225E2
:100A900000F080FE684304461549FFF725FB154E1C
:100AA0007080378014A002F015FC0B2117A002F013
:100AB00011FC7D2109011BA002F00CFC71881FA014
:100AC00002F008FC294621A002F004FC214626A0E1
:100AD00002F000FC394629A002F0FCFB02F000FD08
:100AE0000020F8BD0125D3E7001002401C47000894
:100AF000C05D00001800002046414E2050574D2098
:100B000073657474696E733A0D0A000050574D2076
:100B10007072657363616C6572203D2025640D0AF7
:100B20000000000050574D206672657175656E6358
:100B300079203D2025640D0A0000000050574D200B
:100B4000415252203D2025640D0A0000617062313F
:100B500054696D65724D756C7469706C696572204D
:100B60003D2025640D0A000074696D3134467265BC
:100B700071203D2025640D0A0000000066616E4969
:100B80006E69744C6576656C203D2025640D0A0005
:100B9000F8B51C4F1C4C0546642811D964250FE09C
:100BA000401C86B2268064206188801B48436421F3
:100BB000FFF7B0FA78630A2E02D9642000F01EFB1A
:100BC00020888542ECD864262088854210D2401EB9
:100BD00087B227806188F01B48436421FFF79AFAA7
:100BE000084948630A2FEFD9642000F007FBEBE7C0
:100BF00025806188701B48436421FFF78BFA014907
:100C00004863F8BD002000401800002010B5114CCA
:100C10000120216A0143216201460F48026A0A430A
:100C20000262226801210A43226002680A430260CC
:100C300062690A43626142690A4342610749642268
:100C400008884988101A48431146FFF763FA606321
:100C500010BD0000002000400004004018000020EB
:100C6000F8B505460446403528780026012808D006
:100C700001202870206881688907890F012908D11F
:100C800001E00220F8BD0168C90738D1C168090434
:100C900035D4616CFF220132914302221143616419
:100CA000C1688907890F0091C16889088900C160FE
:100CB0002068816892071143816000F0C1FB0746FC
:100CC0000EE000F0BDFBC01B022809D9606C0221B8
:100CD0008843102108436064002028700120F8BD7B
:100CE000206880680028ECDB2068C168009A114306
:100CF000C160606C80088000401C606404E0606C2F
:100D00002021084360640126002028703046F8BD89
:100D1000F8B500250446403400952278012A39D0E0
:100D20000122227003689E68760767D4384F4E68A8
:100D3000BE424DD09E6A0F78BA4016439E62012390
:100D4000826B1B079A421FD0012A1DD0022A1BD09A
:100D5000032A19D0042A17D0052A15D0062A13D041
:100D6000072A11D002688B6856697607760FB3425E
:100D70000AD05369DB08DB005361006842690B7AD3
:100D80005B075B0F1A4342610A68102A04D0112ADC
:100D900002D038E00220F8BD1E488368102A07D030
:100DA00001229205134383600868102803D02AE0CB
:100DB0000122D205F6E7194817490068FFF794F9B0
:100DC0000A21484300E0401E00900028FBD11AE0B1
:100DD000986A0E78B240904398620968102901D051
:100DE000112910D10B488268102904D001218905EE
:100DF0008A43826007E00121C905F9E7416C20229E
:100E0000114341640125002020702846F8BD0000F0
:100E1000011000000027014040420F0004000020A4
:100E2000F8B500250446002803D0606C002802D0E5
:100E300008E00120F8BD0020A064402108552046AC
:100E400000F0A8F8606C1022C006002870DB206853
:100E5000816849076CD4616C1301994302231943DB
:100E6000616481688907890F012905D10168C90773
:100E70000FD1C16809040CD4C16818239943A36831
:100E80001943C160206801696368890089081943B2
:100E900001612068C1683D4B1940C160A069E169EA
:100EA0008003C9030843216A4B031843636B012B7A
:100EB00002D001231B0300E000231843E36818431A
:100EC0002369022B09D000231843236B666A5B0059
:100ED00018430123012E02D00AE00423F4E700297D
:100EE00027D0616C202631436164A16C1943A16451
:100EF000A16A0E46FF3EC23E02D0E66A3143084375
:100F00002168CE680643CE600126A16B3607B14248
:100F100013D0012911D002290FD003290DD00429A3
:100F20000BD0052909D0062907D0072905D010E0E4
:100F300028E0012109040843DAE721684E69F60830
:100F4000F6004E6121684E69278F7F077F0F3E4371
:100F50004E612168C9680E4E3140814207D10020A0
:100F6000A064606C80088000401C606408E0606CD5
:100F70000221884310436064A06C1843A0640125DB
:100F80002846F8BD606C10436064F8E71902FEFF64
:100F9000E7FF3F8330B500680E4987B0884217D11C
:100FA0000D48826941150A43826180690324084023
:100FB0000590202000256A4631C26946074800F0A6
:100FC00095F90094694606480295019400F08EF95F
:100FD00007B030BD00240140001002400008004866
:100FE0000004004870B5044621680020896849075C
:100FF00021D425464035297801291CD001212970AA
:10100000E169012904D02046FFF734FB002811D103
:10101000616C0A4A1140FF220132114361640021D0
:10102000A164297022681C21116021688A68042348
:101030001A438A6070BD022070BD0000FEF1FFFF00
:101040000020704710B504000DD0607F002803D148
:101050002077204600F024F8022060772046FFF732
:10106000EFFF002801D0012010BD6079002814D0C6
:10107000206921680861216888686022904362695C
:10108000104388602168886880229043A2691043D9
:10109000886001206077002010BD0020C043E8E791
:1010A00008B500680549884207D1054842694021D2
:1010B0000A43426140690840009008BD0030024088
:1010C0000010024070B504001BD020680168490878
:1010D000490001602068002505602068456020689F
:1010E00085602068C5602046FFF726FB216C012043
:1010F0008840E16B4860A56320346570257000204E
:1011000070BD012070BDF0B4C16B0D6801680C6842
:101110000422066C1346B3402B420DD063070BD557
:101120000B689B0602D40B6893430B60016C8A40EA
:10113000C16B4A60C16A19E00227B74002462F40DE
:1011400001232032002F15D0A70713D50C68A40661
:1011500004D40C680A25AC430C605370036C022164
:101160009940C36B596000211170816A002916D023
:10117000F0BC08470827B7402F4210D024070ED5EF
:101180000C680E25AC430C60046C1946A140C46B7E
:1011900061608363537000211170016BE6E7F0BC5E
:1011A0007047000070B5040024D002202146203191
:1011B0000D464870226811680F48A36801406068B6
:1011C00026691843E3683343184363691843A369E6
:1011D0001843E3691843084310602046FFF7ACFA50
:1011E0000020A062E06220636063A0630121697057
:1011F000287070BD012070BD0FC0FFFF31B500F039
:101200001FF9009C0546601C00D0641C00F018F912
:10121000401BA042FAD338BDF0B5002358E00122AC
:101220009A4014460A4052D006685F000325BD402C
:10123000AE43AC460660DD08AD002D182E6AAE4602
:101240005D07EF0E0F25BD40AE4375462E628668E2
:101250006546AE4386604568A5434560C4686546FB
:10126000AC43C4609D081C4CAD002D19AF689C07B1
:10127000260F0F24B440A4463C400927FF06B8427D
:1012800001D100270FE0154FB84201D101270AE034
:10129000134FB84201D1022705E0124FB84201D1E5
:1012A000032700E00527B740A74210D1AE68644687
:1012B000A643AE600C4C2568954325606568954350
:1012C0006560A5689543A560E5689543E5605B1C8E
:1012D0000A46DA40A3D1F0BD0000014000040048F6
:1012E00000080048000C004800040140F8B5002345
:1012F0008DE001249C40A44622407DD04C68022C05
:1013000001D0122C0CD1DC08A40027183C6A5D0720
:10131000ED0E0F26AE40B4430E69AE4026433E624A
:1013200005685E000324B4400F79A543BF07BF0FD3
:10133000B7402F4307604D68012D05D0022D03D023
:10134000112D01D0122D0ED18568CF68A543B7406D
:101350002F43876047686546AF430D79ED06ED0F73
:101360009D403D434560C568A5438C68B4402C430F
:10137000C4604C68E40049D5284CA5690126354372
:10138000A561A4699D0834400094254CAD002F1937
:10139000BC689D072E0F0F25B540AC430925ED060F
:1013A000A84201D100250FE01E4DA84201D1012520
:1013B0000AE01D4DA84201D1022505E01B4DA842BF
:1013C00001D1032500E00525B5402543BD60184C3B
:1013D00025684E689543F60300D51543256065687A
:1013E0004E689543B60300D515436560A5684E6801
:1013F0009543F60202D500E008E01543A560E568D4
:101400004E689543B60200D51543E5605B1C0A683B
:101410001446DC4000D06CE7F8BD0000001002402C
:10142000000001400004004800080048000C00488B
:1014300000040140002A01D0816170478162704739
:1014400001480068704700000000002070B50400EB
:1014500005D025466035687A002802D006E00120D4
:1014600070BD00202872204600F0EEFE2420687235
:1014700020680168490849000160204601F042FFE8
:101480000128EDD0606A002802D0204601F0B3FEAA
:10149000206841680122D20291434160206881683E
:1014A0000822114381602068016801221143016014
:1014B000204601F005FF70BD02480168491C01602B
:1014C000704700000000002010B506480168102297
:1014D00011430160002000F007F800F017F8002029
:1014E00010BD00000020024010B5044600F04CF989
:1014F0007D21C900FEF7F8FD00F050FB00222146D7
:10150000501E00F033F8002010BD000008B50C4854
:10151000816901221143816180691040002200909D
:101520001146501F00F022F800221146901E00F0D4
:101530001DF800221146501E00F018F808BD0000EA
:1015400000100240C106C90E012088400149086010
:101550007047000080E100E0C106C90E012088400C
:10156000014908607047000000E100E010B501F09B
:1015700089FB10BDF8B505460068354CC00352D54F
:10158000E0690026C00007D4E16920040143E1615D
:10159000E1690140012600912E480168C90510D477
:1015A0000168821511430160FFF74AFF074604E016
:1015B000FFF746FFC01B642824D826480068C005F2
:1015C000F6D5206A03273F02384020D069683940A9
:1015D00081421CD0206A226AB843012109040A43CF
:1015E0002262226A8A4322622062C0070FD0FFF77C
:1015F00027FF009008E0FFF723FF0099411A1648E3
:10160000814201D90320F8BD206A8007F3D5206A02
:101610006968B84308432062002E04D0E1690120C4
:1016200000078143E1612878C00705D0206BA968D5
:1016300080088000084320632878800605D5206B49
:1016400010218843E968084320630020F8BD0000AA
:10165000001002400070004088130000F8B50546F5
:1016600044480E460068C007C00FB0420AD2414845
:10167000016849084900314301600068C007C00F94
:10168000B0425CD128783C4C800705D56068F021D9
:101690008843A968084360602878C0073FD068681D
:1016A000012813D02168022813D08907002946DABF
:1016B00061688908890001436160FFF7C1FE6968BC
:1016C000074601290DD0022917D024E0216889039B
:1016D000ECE78901EAE7FFF7B3FEC11B2748814227
:1016E00017D860680007800F0128F4D117E0FFF7D2
:1016F000A7FEC11B214881420BD860680007800FFC
:101700000228F4D10BE0FFF79BFEC11B1B4881426E
:1017100001D90320F8BD60680007800FF3D1154898
:101720000168C907C90FB1420BD9016849084900CE
:10173000314301600068C007C00FB04201D00120F2
:10174000F8BD2878400706D560680721090288435C
:10175000E9680843606000F02DF86168084A0906EE
:10176000090F515CC840074908600020FFF7BCFE24
:101770000020F8BD00200240001002408813000045
:101780000C47000804000020014800687047000072
:10179000040000200448054900684968044A4905D6
:1017A000490F515CC84070470400002000100240FF
:1017B0001C47000810B511A30FCB88B06C460FC4AE
:1017C00012A30FCB0FC415494A680C2013460340DF
:1017D0001348042B0FD0082B0DD193021B0F6C461E
:1017E000E45CC96A04AB0907090FD203595C920F84
:1017F000FEF77AFC604308B010BD00000203040548
:10180000060708090A0B0C0D0E0F10100102030445
:1018100005060708090A0B0C0D0E0F1000100240F8
:1018200000127A00FEB504460078D24DC00749D0B8
:1018300068680007800F012820D068680007800FC3
:10184000022804D16868C003800F022816D0012046
:1018500062680004012A18D08100002A01D0052AFC
:1018600017D02A6882432A60286888432860606805
:1018700000281BD0FFF7E4FD064613E0286880032C
:1018800020D56068002876D01CE0296801432960D3
:10189000EDE72A680A432A60F7E7FFF7D1FD801BCE
:1018A000642869D828688003F7D50BE0FFF7C8FDE6
:1018B000064604E0FFF7C4FD801B6428F1D82868C1
:1018C0008003F7D420780126800700283DDA686875
:1018D0000007800F13D068680007800F022804D12A
:1018E0006868C003800F012809D0E06800282868D4
:1018F0001CD030432860FFF7A3FD07460BE02868A3
:1019000080070BD5E068012835D107E0FFF798FD87
:10191000C01B0228C5D828688007F7D52868F82199
:1019200088432169C900084328600EE04008400050
:101930002860FFF785FD074604E0FFF781FDC01B27
:101940000228AED828688007F7D42078000723D56E
:10195000E0690028686A10D030436862FFF770FDC4
:10196000074604E0FFF76CFDC01B022899D8686A9F
:101970008007F7D510E0FAE0A4E040084000686274
:10198000FFF75EFD074604E0FFF75AFDC01B022883
:1019900087D8686A8007F7D4207804274007002892
:1019A00060DA00200190E869C00008D4E969B8064F
:1019B0000143E961E96901400120009101906E480D
:1019C0000168C90511D40168821511430160FFF750
:1019D00037FD009005E0FFF733FD0099401A6428B9
:1019E00070D865480068C005F5D5A06801280AD000
:1019F000002801D0052810D0286A4008400028623D
:101A0000286AB84301E0286A30432862A0680028A9
:101A100012D0FFF715FD00900AE0286A38432862CB
:101A2000F1E7FFF70DFD0099411A5448814249D86A
:101A3000286A8007F5D50DE0FFF702FD009006E06B
:101A4000FFF7FEFC0099411A4C4881423AD8286AB7
:101A50008007F5D40198002804D0E9690120000727
:101A60008143E9612078C00635D5606901280CD032
:101A7000401D686B23D038436863686B40084000A2
:101A80006863FFF7DDFC064622E0686B3843686355
:101A9000686B30436863FFF7D3FC064604E0FFF74A
:101AA000CFFC801B02285BD8686B8007F7D5686B7A
:101AB000F8218843A169C900084368630BE0B84373
:101AC0006863F4E74CE0FFF7BBFC801B022847D8B3
:101AD000686B8007F7D4206A002846D06968090738
:101AE000890F022943D0012636060228286805D02E
:101AF000B0432860FFF7A4FC044633E0B0432860FD
:101B0000FFF79EFC074604E0FFF79AFCC01B022883
:101B100026D828688001F7D4E86AE16A0009000144
:101B20000843E862616AA06A084369687B22D203BD
:101B3000914308436860286830432860FFF780FCC1
:101B4000044604E0FFF77CFC001B022808D8286844
:101B50008001F7D509E0FFF773FC001B022801D9CB
:101B60000320FEBD28688001F5D40020FEBD0120C1
:101B7000FEBD00000010024000700040881300000D
:101B8000042204490428086902D090430861704780
:101B90001043FBE700E000E070470000094910B582
:101BA000401E884201D9012010BD074C606103210D
:101BB000081F01F067F80020A061072020610020C5
:101BC00010BD0000FFFFFF0000E000E010B5FFF7D0
:101BD000E3FF10BD70B502462032137F012B1BD0EE
:101BE0000123137702245477046865687026B5438F
:101BF0006560046865680E68354365600468A568BB
:101C00008026B543A5600068846849680C438460F9
:101C100053770020107770BD022070BD70B50400AE
:101C200005D025462035687F002802D006E0012037
:101C300070BD00202877204600F00AF8022068775F
:101C4000211D206801F0E0F801206877002070BDB8
:101C5000F0B505462F4B026800262F48022187B0B9
:101C60009A4211D1C2690A43C261C0696A460840FA
:101C70000590102043C2012004906946039627482E
:101C8000FFF734FB07B0F0BD254B9F159A4206D1F4
:101C9000C1693943C161C06938400590F2E7214B01
:101CA0009A42EFD183690122120413438361806950
:101CB0001040059008206A4643C2092003966946F1
:101CC000C0060496FFF712FB1748184C41C4A760E2
:101CD000802026606060C000E06020206661206196
:101CE0001248083CFFF75EFA002803D0F22110A04A
:101CF00001F0E6FB0C482830816A0F221204914360
:101D00008162816A81626C622C62AC636C63656221
:101D1000B8E7000000040040001002400004004842
:101D20000020004000400140580002400C04002008
:101D30002E2E2F5372632F73746D33326630787882
:101D40005F68616C5F6D73702E630000F8B50546C7
:101D500004462035287F012817D001272F7702203D
:101D60006877226890687726FF23B0431B02984368
:101D700090600868502837D00EDC202857D006DC49
:101D800000284ED0102840D14EE00220F8BD302867
:101D900050D0402839D13CE060282DD0702817D091
:101DA00001221203801A0ED090422ED1CB684A68CD
:101DB0008968206801F06CF820688168012292032C
:101DC0001143816021E020688168C908C900F8E7F3
:101DD000CB684A688968206801F05AF821688868E9
:101DE000B0433043886010E0CA684968206801F059
:101DF0009CF95021206806E0CA684968206801F013
:101E0000CDF96021206801F04EF86F770020287727
:101E1000F8BDCA684968206801F087F94021206848
:101E2000F1E700212068EEE710212068EBE7202190
:101E30002068E8E730212068E5E7F8B50646044663
:101E40002036307F0D4601283DD00120307702201A
:101E50007077002A39D0042A46D0082A57D02B6838
:101E6000297B20689E468C466B68016A012212031A
:101E700091430162C169026A03273F02B9431B0211
:101E80000B430F2109038B4361460907090C1943D2
:101E900005235B039A4373460A273B401B03134306
:101EA000C16103622068C169032292029143C1614A
:101EB0002068C169AA6812021143C16101207077CC
:101EC00000203077F8BD0220F8BDEB6806CD083D54
:101ED000206801F03BF9206882690C218A43826105
:101EE00020688169AA680FE0EB6806CD083D20688C
:101EF00001F067F920688269032189028A438261BF
:101F000020688169AA68120211438161D6E788CDF1
:101F1000287921688446086AFF22013290430862CA
:101F2000C8690A6A800880003843F027B8436746CA
:101F30003F073F0E07430520400282430A2003402B
:101F400018021043CF6108622068C1690C229143D6
:101F5000C1612068C1692A68AEE770B5040005D088
:101F600025462035687F002802D006E0012070BD9C
:101F700000202877204600F00AF802206877211D0B
:101F8000206800F041FF01206877002070BD704795
:101F900000B50068094985B088420DD11020009035
:101FA0000220019000200290039004200490092058
:101FB0006946C006FFF79AF905B000BD0020004051
:101FC000F8B5064604462036307F0D4601280DD070
:101FD00001203077022070770427002A08D0042AD5
:101FE00016D0082A2AD00C2A4DD137E00220F8BD9D
:101FF000206800F061FF2068816908221143816137
:1020000020688169B9438161206881692A6912E089
:10201000206800F095FF206882690121C9020A4307
:102020008261206881690122920291438161206866
:1020300081692A6912021143816124E0206800F05D
:10204000BFFF2068C26908210A43C2612068C169D4
:10205000B943C1612068C1692A6912E0206800F0B3
:10206000F1FF2068C1690122D2021143C1612068D9
:10207000C269012189028A43C2612068C1692A6953
:1020800012021143C1610120707700203077F8BD42
:1020900070B5040005D025462035687F002802D0A1
:1020A00006E0012070BD00202877204600F00AF8E5
:1020B00002206877211D206800F0A6FE01206877C5
:1020C000002070BD704770B5054604462035287F56
:1020D000012814D001262E7702206877204600F0D0
:1020E000E7FF2068C16840229143C1602068C16851
:1020F00012029143C1606E770020287770BD0220E4
:1021000070BD70B5040019D0242120466030064609
:102110004172206801684908490001602068002573
:1021200005602068456020688560204600F03EF824
:10213000E5667572B5723572002070BD012070BD04
:1021400070B5040005D025466035687A002802D0B5
:1021500006E0012070BD00202872204600F074F8CF
:1021600024206872206801684908490001602046FF
:1021700001F0C8F80128EDD0606A002802D020469E
:1021800001F039F8206841680122D2029143416090
:1021900020688168082291438160206801680122DB
:1021A00011430160204601F08BF870BD10B5044664
:1021B00000681E4A1E4990420CD188690122920390
:1021C00090438861C0211B48FFF726F8606EFEF738
:1021D00079FF19E0184A90420AD1C86901225204D5
:1021E0009043C86109200421C006FFF715F810BD0F
:1021F000124B134A98420BD1C869D3019843C86166
:1022000010211046FFF708F8206EFEF75BFF10BDA7
:102210000C4B9842FBD188692023984388610321A5
:102220001046FEF7F9FF606EEFE70000003801404E
:1022300000100240000400480044004000480040F4
:102240000008004800140140F0B50646724B0268D1
:102250007248032100258027714C87B09A4257D1DC
:102260008369FA01134383618069039110400590EB
:10227000C0200090022001900295049569466948AB
:10228000FFF734F866496848503922C00560856018
:10229000C5600561476045610838FEF783FF002887
:1022A00004D0FF217C3161A001F00AF9A06A0F215E
:1022B00009028843A062A06A0121C9020843A06202
:1022C00059487066466256485F4D3C382860102079
:1022D00068600020A86028616861A861EF60E8611B
:1022E0002846FEF75FFF002804D0FF218E314FA063
:1022F00001F0E6F8A06A0F2109038843A062A06AF2
:102300000121C9030843A06235666E6207B0F0BDC3
:102310004E4B9A4215D1C369012252041343C36143
:10232000C069039110400590042000901220019094
:1023300001200290049009206946C006FEF7D6FFEE
:10234000E4E7434B9A4232D1C3690122920413431A
:10235000C361C069039110400590102000901220C5
:10236000019001200490029569463A48FEF7BEFFAD
:102370002B493948643901601021021DA2C2056150
:1023800045618561C561FEF70DFF002804D0FF217E
:10239000CD3126A001F094F8A06AF0218843A06214
:1023A000A06AA0210843A0622B48306631E02B4B85
:1023B0009A42ABD1836920221343836180690091E3
:1023C0001040059002200190039104900295694607
:1023D0002048FEF78BFF12492148783922C005605A
:1023E0008560C5600561476045610838FEF7DAFE23
:1023F000002804D0FF21F7310CA001F061F8A06A99
:1024000000090001A062A06A0D210843A0621448DF
:10241000706646627AE70000003801400010024012
:102420008000024000040048500400202E2E2F534C
:1024300072632F73746D3332663078785F68616CC5
:102440005F6D73702E630000940400200044004010
:102450000048004000080048D80400200014014053
:102460001C050020FFB5064604466036707A83B02E
:102470000D46202858D1002D0CD00598002809D0F1
:102480000120A1680003814207D12069002804D1FE
:10249000E80702D0012007B0F0BD307A012843D010
:1024A000012030720020E06621207072FEF7C8FF24
:1024B000019027464037059838820598788218E0C1
:1024C000788A401E7882069800900022802120465B
:1024D000019B00F0C3FF002818D10120A168000370
:1024E000814202D12069002812D02168287808850D
:1024F0006D1C788A0028E3D10698009000224021C4
:102500002046019B00F0AAFF002808D00320C2E764
:1025100028882168C005C00D0885AD1CE9E720208A
:10252000707200203072B6E70220B4E7FEE7014681
:102530004A880020282A00D90120CA88282A01D9DF
:10254000022210434A89282A01D904221043CA8949
:10255000282A01D9082210434A8A282A01D91022A0
:102560001043CA8A282A01D9202210434A8B282ADC
:1025700001D940221043C98B282901D98021084361
:1025800070470000F0B58BB00546FFF7D0FF754CE3
:10259000207028462030FFF7CAFF207128464030BF
:1025A000FFF7C5FF207228466030FFF7C0FF207399
:1025B00028468030FFF7BBFF20742846A030FFF785
:1025C000B6FF20752846C030FFF7B1FF20762846B9
:1025D000E030FFF7ACFF207727683806000F08903F
:1025E00063683818C1181806000F09180790A0680A
:1025F000864609180006000F0690E26808181106C2
:10260000090F05918018256941182807000F0490CB
:10261000081829060391090F40186169AC4645184E
:102620000806000F2E180090A5692807000F36181D
:10263000029028060190000FE46930180019000785
:10264000000F09902006060F0998864202D001204B
:102650000BB0F0BD7807400F0A267043089E86191C
:102660004048203006703E07F60F4670DE07F60F32
:102670000A277E43079FF619867076467607760FFF
:102680000A277E43069FF619C6709E07F60F06714D
:102690005E07F60F46711B07DB0F837173461B073E
:1026A000DB0FC371D307DB0F0A267343059E9B190B
:1026B0000372049B0A26734343729307DB0F8372F2
:1026C0005307DB0FC372EB431B070026002B41D0DF
:1026D00006744674CB07DB0F0A267343009E9B19D2
:1026E0000373029B0A26734343738B07DB0F8373C9
:1026F0004B07DB0F1207C373D20F82746246520678
:10270000D20FC27462469206D20F02756246D2069A
:10271000D20F4275039A0907D20F8275C90FC1758E
:10272000E906C90F0176A906C90F41766906C90FE6
:1027300081760199C90FC176E107C90F0177A10719
:10274000C90F41776107C90F81772107C90FC17789
:1027500000207DE701230374009B437406734673D6
:10276000C3E70000780700200EB522482049016029
:10277000002141608160012204230C300EC0016001
:1027800041608260C160FF224161C23281610261A9
:10279000C1611838FEF744FB002802D0FF21EC315C
:1027A00022E0082000904002019000040290694657
:1027B0001048FEF7ADFA002802D0FF21F63113E0F1
:1027C0000920009069460B48FEF7A2FA002802D0C3
:1027D000FF21FE3108E00F20009069460548FEF712
:1027E00097FA002803D0044904A000F069FE0EBD4A
:1027F000002401401C010020050200002E2E2F5352
:1028000072632F6D61696E2E6300000010B50E4873
:102810000C49016000210171417141618161012117
:102820000162FEF70FFC002801D0084906E00648C7
:10283000FEF706FC002804D00449491D04A000F05E
:102840003FFE10BD0030024068010020160200006B
:102850002E2E2F5372632F6D61696E2E6300000060
:10286000F0B5304887B042690121C9040A4342618A
:1028700042690A4005924269C9000A4342614269BD
:102880000A400592426949110A43426142690A407D
:102890000592426949000A43426142690A40059231
:1028A000426989000A4342614069592508401E4F28
:1028B0006D010590002229463846FEF7BBFD07262C
:1028C000B602002231461948FEF7B4FD0022042169
:1028D0001748FEF7AFFD8120C00000901548002486
:1028E0000190694602943846FEF700FD00950125E7
:1028F00002946946384601950394FEF7F7FC02946A
:1029000069460A48009601950394FEF7EFFC0420FF
:10291000009002946946019503940548FEF7E6FC91
:1029200007B0F0BD00100240000400480008004855
:10293000000C00480000111010B5194888B0174964
:10294000016000248460C4600B2104614160802127
:102950008161FFF763F9002802D04D21C90014E01E
:102960000F48FFF795FB002801D00E490DE06020CD
:102970000090019402940022694604940848FFF7ED
:102980001FFB002804D007490931074800F098FDD3
:102990000348FFF7FDFA08B010BD0000002000401A
:1029A000CC0100206D0200005028000870B53148AD
:1029B00090B02F4901603049012500242D03021DEC
:1029C00032C2046144618461FFF728F9002801D014
:1029D0002A4948E009A927480995FFF7B7F90028CF
:1029E00002D02649891D3EE02248FFF7B6FA0028AA
:1029F00002D022490B3136E00420049060200225E9
:102A00000326059004A90896069507941948FFF730
:102A10005AFB002802D0A921890024E0009400225A
:102A200069461448039601950294FFF706FA0028B8
:102A300002D012491E3116E001200190042269469D
:102A400000950C48FFF7F9F9002802D0AD21890064
:102A500009E00D940DA907480E94FFF7BBF8002874
:102A600004D006492C3106A000F02AFD10B070BD3C
:102A7000004001400C020020BF1200008F02000045
:102A80002E2E2F5372632F6D61696E2E630000002E
:102A900010B52B4890B029490160FF210024E03196
:102AA00084604160046127498461C160FFF7B6F822
:102AB000002801D024493CE001200003099009A925
:102AC0001F48FFF743F9002802D01F49891D30E055
:102AD0001B48FFF742FA002802D08F21890028E026
:102AE00004200090502001900294694604941448F8
:102AF000FFF7E9FA002802D01349143119E00D94C8
:102B00000DA90F480E94FFF765F8002802D0932115
:102B100089000EE001200690032008900594079498
:102B2000002205A90648FFF788F9002804D00649C5
:102B3000243106A000F0C4FC10B010BD0004004019
:102B40008C010020FFFF0000310200002E2E2F53C9
:102B500072632F6D61696E2E6300000010B510481E
:102B60000E4901604B210901416000218160C16073
:102B7000016181610C22C1614261016240214162B7
:102B800089030164D1044164FFF7DAFA002803D015
:102B90000449054800F094FC10BD000000380140D5
:102BA0004C020020D20200005028000810B50D4849
:102BB0000B490160E1214902416000218160C1604F
:102BC00001618161C1610822016242614162FEF7D7
:102BD0003DFC002803D00449044800F071FC10BDFE
:102BE00000440040BC020020E7020000502800081A
:102BF00010B510480E4901604B21090241600121C6
:102C0000090381600322520202610021C1608161D7
:102C1000C1610C22016242614162FEF717FC00288B
:102C200004D0BF218900044800F04AFC10BD000018
:102C3000004800402C0300205028000810B50D4823
:102C40000B490160E1214902416000218160C160BE
:102C500001618161C1610C22016242614162FFF741
:102C60006FFA002803D00449044800F029FC10BD85
:102C7000001401409C0300201103000050280008AC
:102C8000704700008307FF22DB0E9A408907090E78
:102C9000994000280BDA0007000F0838830808481D
:102CA0009B001818C36993430B43C36170478308A3
:102CB00004489B001B18186890430843186070472D
:102CC00000ED00E000E400E0704770470A4AD16977
:102CD000490601D4022070470849CB695B085B00B4
:102CE000CB61086206488862C86901231843C8613D
:102CF0004020106200207047004800400000024061
:102D00000800002010B5FEF7D7FBFEF75FFF10BDEF
:102D100070B594B001251220059500901020069002
:102D20000490C002099040010395022600240A90F5
:102D300008960B946846FEF775FD002802D0FF2127
:102D4000B13116E007200C900E9401210D960F94DE
:102D50000CA8FEF783FC002802D0FF21BE3108E05A
:102D600010A810951294FEF705FC002804D0FF214E
:102D7000C5310AA000F0A4FBFEF706FD7D21C900C5
:102D8000FDF7B2F9FEF70AFF0420FEF7F9FE002274
:102D90001146501EFEF7EAFB14B070BD2E2E2F53C5
:102DA00072632F6D61696E2E630000001348016825
:102DB0000122114301604168114A114041600168DC
:102DC000104A1140016001680122920491430160A0
:102DD00041683F22120491434160C16A0909090117
:102DE000C162016BFF22143291430163416B4908B8
:102DF00049004163002181607047000000100240DB
:102E00000CB8FF08FFFFF6FEF0B502681A4B1B4C2A
:102E1000984201D0A04203D17025AA434D682A43AD
:102E2000174D184E184F98420AD0A04208D0174CA0
:102E3000A04205D0A84203D0B04201D0B84205D18B
:102E40001446032212029443CA6822438024A243F8
:102E50004C69224302608A68C2620A6882629842B0
:102E600005D0A84203D0B04201D0B84201D10969CF
:102E7000016301214161F0BD002C014000040040CC
:102E80000040014000440140004801400020004053
:102E900030B58468FF252D021B021343AC430B435E
:102EA0002343836030BD826870239A430A4307211D
:102EB0000A43826070470000F0B5026A520852006F
:102EC0000262056A436882697024A24392080C6812
:102ED00092001443022295438A68164E2A43144DE9
:102EE000A84207D0B04205D0134FB84202D0134FCA
:102EF000B84206D10827BA43CF6817430422974344
:102F00003A46A84207D0B04205D00B4DA84202D0A5
:102F10000A4DA84206D103252D02AB434D691D433E
:102F20008B692B4343608461496841630262F0BD51
:102F3000002C014000400140004401400048014095
:102F400070B5026A10239A430262056A4268836977
:102F500073242402A3430C6824021C4320239D43B2
:102F60008B681B012B43124DA84208D11D46CB682C
:102F70008026B5431B012B434025AB4308E00D4D94
:102F8000A84205D00C4DA84202D00C4DA84208D151
:102F90000325AD02AA434D69AD0015438A6992002D
:102FA0002A434260846149688163036270BD000006
:102FB000002C014000400140004401400048014015
:102FC00070B5026AFF2301339A430262056A4368BF
:102FD000C2697024A24392080C6892001443012233
:102FE000520295438A6812022A43124DA84208D120
:102FF0001546CA68C614B54312022A430515AA43EA
:1030000008E00D4DA84205D00C4DA84202D00C4D51
:10301000A84208D103252D03AB434D692D011D4363
:103020008B691B012B434360C4614968C163026221
:1030300070BD0000002C01400040014000440140F0
:103040000048014030B5026A01231B039A43026223
:10305000046A4268C36973252D02AB430D682D02D3
:103060001D4301235B039C438B681B0323430C4CD0
:10307000A04208D00B4CA04205D00B4CA04202D07D
:103080000A4CA04205D10124A403A2434C69A40127
:1030900022434260C56149680164036230BD00009B
:1030A000002C014000400140004401400048014024
:1030B00070B50468A26870239A434B681343DB0819
:1030C0000A68DB001A43A2604A6813071B0F0ED17F
:1030D0001211130000F03DFA080B0B0B0B0C1D2313
:1030E000050B0B698A68C9680068FFF7D1FE70BDDF
:1030F0000268136A146A6408640014620468A269AE
:103100000969F025AA4309011143A161006803621E
:1031100070BD0A698968006800F007F870BD0A6927
:103120008968006800F03AF870BD30B5036A046A37
:103130006408640004628469F025AC4312012243F0
:103140000A24A3430B438261036230BD70B5046A55
:103150006408640004628469056A0D4EB04205D0BB
:103160000C4EB04202D00C4EB04202D1A408A400D2
:1031700000E001221443F02294431A07120E0A239E
:1031800022439D43194029438261016270BD0000C2
:10319000002C0140000400400040014030B5036AAB
:1031A0001024A34303628469036A0F252D031203CD
:1031B000AC432243A024A343090119438261016265
:1031C00030BD70B5046A1025AC4304628569046A99
:1031D00003263602B54312022A430F252D031B078F
:1031E0001B0CAA431343A02209019443114021431D
:1031F0008361016270BD10B5818CC90707D0016879
:103200004A6801235B049A43836A1A434A60818CAB
:10321000890707D501684A6801231B049A43C36ADA
:103220001A434A60818C490707D501684A6801231F
:103230009B049A43036B1A434A60818C090707D5A4
:1032400001684A680123DB039A43436B1A434A60CF
:10325000818CC90607D50268916801231B03994335
:10326000836B19439160818C890607D501688A6850
:1032700001235B039A43C36B1A438A60818C49061E
:1032800012D503685A6801210905046C8A43224358
:103290005A60026C8A4207D10268516803235B05B9
:1032A0009943436C19435160818C090607D5016825
:1032B0004A680123DB04806C9A4302434A6010BDD4
:1032C0000021C1662022603042728272017208467B
:1032D000704700000FB410B5FF2103AB0131074860
:1032E000029A00F009F982B2642304490448FFF706
:1032F000B9F810BC08BC04B0184700001C0000203E
:10330000BC020020F8B504462369A268E5691A43A7
:103310006369102000212B431A4323680E461D6861
:10332000444F3D4015431D6023685A6803252D0313
:10333000AA43E5682A435A60236AA26925681A43AA
:10334000AB680B273F02BB431343AB603A4A256887
:10335000954210D1394A126B9207920F1AD0012A66
:1033600005D0022A05D0032A15D1022013E004203B
:1033700011E008200FE0324A95420BD0314A9542C5
:1033800008D0314A954205D0304A954202D0304AA1
:10339000954200D100200122E369D203934224D157
:1033A00000280CD002280DD0042813D0082817D0EC
:1033B00001260A0912010807400F10432FE0FEF70B
:1033C000E9F909E06168234A48088018FCF78CFE97
:1033D00081B2EEE7FEF7EEF9616840004A08F4E7D3
:1033E0006168012248081204EFE7002808D002288B
:1033F00009D004280BD0082814D001263046F8BD87
:10340000FEF7C8F905E06168134A48080CE0FEF7CA
:10341000D1F961684A088018FCF766FE80B221681D
:10342000C860EBE7616848088018FCF75DFE80B271
:10343000E860E3E7F369FFEF003801400010024065
:103440000044004000480040004C00400050004054
:10345000001401400024F40000127A00FFB581B08E
:1034600017460E4604460A9D1DE0681C1BD0002D21
:1034700005D0FDF7E5FF0499401AA84213D920684A
:103480000168FF22A13291430160206881684908E8
:1034900049008160202060346072A0720020207298
:1034A000032005B0F0BD2068C1693046884304D0D0
:1034B0000020B842D9D00020F3E70120F9E700004E
:1034C0000A46014601A0FFF705FFFEE74552524FAD
:1034D0005220402573206C696E652025640D0A001A
:1034E00003480B21816203494988C162002070476B
:1034F00000200040180000207CB515460246002040
:103500001C4600290BD0491E00920191044B6A46CB
:103510002146284600F0F4F8009A002111707CBD85
:10352000393E00082021020C01D010211046020A69
:1035300001D010460839020901D01046091F82083F
:1035400001D01046891E420801D0881E7047081A13
:10355000704730B47446641E2578641CAB4200D2B8
:103560001D46635D5B00E31830BC184702E008C8E5
:10357000121F08C1002AFAD170477047002001E0ED
:1035800001C1121F002AFBD170470000F0B51FB423
:1035900086B00998089A030D0021024314D05148BF
:1035A000514A1818504305141198012810981AD040
:1035B000281A401C00264D4F4D4900960191049059
:1035C000002812DA444211E01198012449A301288D
:1035D00001D11098C1430698119A84600360C260BB
:1035E00041600BB0F0BD4042E4E7044621050020F5
:1035F0003F4A001C51410391029012E0E00707D0BE
:1036000032463B4601990098FCF78CFE01910090F0
:1036100032463B4610461946FCF784FE06460F46E6
:103620006410002CEAD10498039B0028029A09999F
:10363000089806DAFCF776FE019B009AFCF772FE0A
:1036400005E0FCF7D7FE019B009AFCF7D3FE044689
:103650000E460022284BFCF765FF03D80020C0432C
:10366000014607E00022254B20463146FCF7A8FD25
:10367000FCF738FF102409E0002C0ADB0A220023A3
:10368000FCF76DFD079B30321A55641E02460A4353
:10369000F2D11122641C079B121B1C19119B012BD8
:1036A00003D0012308430ED10AE0084304D01120BF
:1036B00010900020119077E71098151A6D1E0BE0FE
:1036C0001098824202DD00236D1C03E0824201DA81
:1036D00000236D1E002BEED0069811998260C16008
:1036E00030C07EE701FCFFFF104D000000001440D9
:1036F0000000F03F300000000000F0430000E03F19
:10370000FFB597B00646002518E2252877D100249A
:103710002746FD49049400E00443761C32780120DA
:10372000203A90400842F7D130782A280ED0022261
:10373000307801463039092916D804990A235943AB
:10374000303940181443761C0490F1E7189802C8E9
:1037500004911890002904DA0120400304434842F0
:10376000049002200443761C30782E2814D10420C3
:1037700004437078761C2A2809D11898761C80C8D2
:10378000189009E00A214F43303FC719761C307862
:10379000014630390929F5D930786C2810D006DC7B
:1037A0004C281AD068280ED06A2817D104E0742853
:1037B00013D07A2812D110E00120400504430CE018
:1037C0000121090501E0032109050C4371788142BB
:1037D00003D1012000052418761C761C3078119046
:1037E00066280BD013DC58287DD009DC00287BD05C
:1037F0004528F6D04628F4D047281AD1A5E118E08C
:10380000632835D0642870D0652812D19DE17028D6
:103810006CD008DC6728F1D069287BD06E280DD0E9
:103820006F2806D1BAE073282ED0752871D0782879
:1038300059D01A9A199990476D1C7EE16002400F89
:10384000022809D003280DD00428189801680DD04B
:103850000D60001D189070E11898EA1701680D605E
:103860004A60F6E7189801680D80F2E70D70F0E7FE
:1038700018986A4601781172001D18900020507245
:1038800002A80090012005E0189802C818900020B6
:103890000091C04361070DD5002101E00199491C49
:1038A0000191B94212DA8142F8DB009A515C002999
:1038B000F4D10BE0002101E00199491C0191814202
:1038C000FADB019A0099895C0029F5D101990498E5
:1038D0001A9B471A21463846199A00F097FA01991F
:1038E000401945180BE04FE02CE113E04EE0009842
:1038F00000990078491C00911A9A199990470198EB
:10390000401E0190401CF2D1214638461A9B199A5C
:1039100010E137E00A200021009001916002410F80
:10392000022907D0189A01CA1892C217944603298F
:1039300008D00AE01898C01DC108C90005C918912F
:10394000944607E000B2C2179446042902D140B25F
:10395000C1178C4600226146944506DA0A460021CA
:10396000404291418C462D2102E0210504D52B21B6
:103970006A461173012103E0E10701D02021F7E736
:10398000029155E00A200AE0102008E01020009083
:103990000021042004430191082703E008200021AE
:1039A000019100906002410F022907D0189A01CAC4
:1039B000189200229446032908D008E01898C01DE8
:1039C000C108C90005C91891944603E080B20429D2
:1039D00000D1C0B200210291210729D51199702987
:1039E00006D0009A1021019B4A401A4305D00EE0F0
:1039F00040216A461173012108E06146014306D067
:103A000030216A4611731199517302210291009A73
:103A10000821019B4A401A430AD16146014301D162
:103A2000610705D530216A46117301217F1E02917D
:103A30001199582904D035A10E910DA90D910DE0D1
:103A400037A1F9E76146019B009AFCF788FB0E9BC2
:103A50008C469B5C0D9A521E0D9213706146014379
:103A6000F0D10D9805A9081A20300190600703D500
:103A700001200004844300E001270198874201DD12
:103A8000381A00E0002001990090411802980918A6
:103A90000498401A0490E00306D421461A9B199A10
:103AA000049800F0B3F94519002706E003A81A9A14
:103AB000C05D199990476D1C7F1C02988742F5DB09
:103AC000E0030CD521461A9B199A049800F09EF940
:103AD000451904E01A9A3020199990476D1C0099F5
:103AE000481E00900029F5DC08E00D980D9900783B
:103AF000491C0D911A9A199990476D1C0199481EFD
:103B000001900029F1DC63E10928010030313233F2
:103B10003435363738396162636465660000000009
:103B200030313233343536373839414243444546F3
:103B30000000000000F05AF94519761C3078002882
:103B400000D0E2E528461BB0F0BD600700D4062790
:103B50001898C01DC108C90048680A680831C30F19
:103B6000DB071891190001D09CA108E0210501D5BF
:103B70009BA104E0E10701D09AA100E09AA14300D3
:103B800011985B08109165280CD006DC452809D0F7
:103B900046281DD0472841D141E0662818D0672823
:103BA0003CD13CE00021112F01DB112000E0781C0A
:103BB0000191009008A911A8FFF7E8FC139905915D
:103BC0000021119A15927F1C12980197009150E0E4
:103BD0000120C00703900120019008A9009711A8B7
:103BE000FFF7D4FC139A149905920022119B0092BE
:103BF00012981593059A0192002901D0104602E00F
:103C0000791C40180190381A01D5019804E040420F
:103C1000401E0090781C0190C01B029043E0012FD1
:103C200000DA01270021112F01DD112000E03846C4
:103C30000191009008A911A8FFF7A8FC139905911C
:103C4000119A0021129815920091019721070CD426
:103C50000599B94201DB019900E00191012904DDD8
:103C6000159A491E515C302906D0B84201DA011D6F
:103C700005DA0121029115E00199491EEDE70028BE
:103C800005DC0099411800910199091A03E0019A95
:103C9000411C914200DD01910099401A401C0290A4
:103CA0000120C0070390200706D4029901988142A1
:103CB00002DB0020C043029000206946C87707AFAE
:103CC000012103980337C907884224D002201190AC
:103CD0002B201290039800280CDA404203902D20EC
:103CE000129007E00A210398FCF7FEF930317F1E9D
:103CF000039039701199481E11900029F2DC039845
:103D00000028EFD1791E12980870307820210840E1
:103D10004530BF1E387006A8C01BC01D0390109808
:103D20000078002800D00120019941180298C0179E
:103D30000918039809180498401A401E0490E003DB
:103D400006D421461A9B199A049800F05FF8451989
:103D500010980078002803D01A9A199990476D1C82
:103D6000E00324D521461A9B199A049800F04EF8D6
:103D700045191CE00098002807DB00990598884247
:103D800003DD1598405C199901E0199930201A9AC1
:103D9000904700986D1C401C00900298401E0290B5
:103DA000002804D11A9A2E20199990476D1C019968
:103DB000481E01900029DDDC05E038781A9A7F1C46
:103DC000199990476D1C0399481E03900029F4DC53
:103DD00021461A9B199A0498ACE600002D000000B9
:103DE0002B0000002000000000000000F8B5044691
:103DF00000251E461746880404D405E039462020D5
:103E0000B0476D1C641EF9D52846F8BDFFB50446C1
:103E1000002581B01E46C80301D5302700E02027C9
:103E2000880404D505E038460399B0476D1C641E2C
:103E3000F9D5284605B0F0BD4A68002A06D00A68C0
:103E4000531C0B6010704868401E486070470000AB
:103E500000208EB0044605900C90FDF735FBFEF770
:103E600057FFFEF7FDFCFD484169012631434161E2
:103E7000406900223040009011460920FDF776FB92
:103E80000920FDF769FB002211460A20FDF76EFBB1
:103E90000A20FDF761FB002211460B20FDF766FBAF
:103EA0000B20FDF759FBFEF75FFCFEF7F1FDFEF777
:103EB00043FDFEF77BFDFEF751FEFEF777FEFEF7B2
:103EC00097FEFEF7BBFEFEF7A1FCE5A0FFF702FAA6
:103ED000FCF794FDFCF784FD0520FDF78FF9062122
:103EE00000220846FCF76CFD0520FDF787F9FCF77A
:103EF0001DFDFCF745FDFCF7A7FDFCF72FFC002896
:103F000003D0A621DCA0FFF7DBFA0122DE4FD502A9
:103F100029463846FDF78EFA6420FDF76FF9002236
:103F200029463846FDF786FA1420FCF7A5FDFCF774
:103F30006DFE002211460120FCF732FDFF254B35B6
:103F40002846FDF75BF9002201211046FCF728FD09
:103F50002846FDF753F9002101220846FCF720FD11
:103F60002846FDF74BF9002211461046FCF718FDD4
:103F70002846FDF743F95820FCF752FD2846FDF787
:103F80003DF9FCF72DFD00250A2000F0E1FA6D1C3B
:103F9000EDB2082DF8D30025FDF752FA0A21FCF7FF
:103FA000A3F80029F8D105A8FCF762FC00280AD084
:103FB000022877D0B5A0FFF78DF9FCF73FFC012070
:103FC000FDF71CF9E8E70598007E00282DD0B4A085
:103FD000FFF780F9002C12D0FDF732FA0A99411A46
:103FE000FF20F530814271D20C98002809D00A20B8
:103FF00000F0AEFA0A3D2D062D0E0DD00EE0012484
:104000000FE00A2000F012FB0A35EDB2502D01D16D
:1040100001200C90AEA002E000200C90B0A0FFF7B1
:1040200059F9FDF70DFA0A90C9E70122D70239467E
:104030009548FDF7FFF9AEA0FFF74CF9B2A0FFF7E6
:1040400049F9ABA0FFF746F905980178B2A0FFF750
:1040500041F905984178B4A0FFF73CF90598C37879
:1040600082780079002801D0B4A100E0B4A1B5A005
:10407000FFF730F905984179B9A0FFF72BF90598BA
:104080008179BBA0FFF726F90598C179BCA0FFF79D
:1040900021F90598417A0091817A037A002902D0AA
:1040A000A6A201E037E2A6A2C07A002801D0B8A1FA
:1040B00000E0B8A1B8A0FFF70DF90598417B009189
:1040C000817B037B002902D09CA201E02DE29CA20F
:1040D000C07B002801D0AEA100E0AEA1B6A0FFF7E2
:1040E000F9F80598427C017CBBA0FFF7F3F805982E
:1040F000827D417D01920091037DC27C817CBEA0C6
:10410000FFF7E8F80598C17DCBA0FFF7E3F8059825
:10411000027E417ECDA0FFF7DDF80598827EC17E4C
:10412000D2A0FFF7D7F80598817F0091437F027FE7
:10413000C17FD6A0FFF7CEF80A20FDF75FF80598FB
:104140000078FCF76DFC002239464F48FDF772F904
:1041500005984079012834D01420FCF719FD00257A
:104160000A2000F0F5F96D1CEDB2082DF8D30025FA
:10417000FCF736FC6420FDF741F8002069464881D1
:104180000598C17C012961D0807C01285FD0032083
:104190006946888132216846C18114210182FDF778
:1041A0004FF9074602A8FCF713FB0090FDF748F90A
:1041B000C11B7D20C00081424AD9C0A0FFF78AF808
:1041C000FDE6002101220846FCF7EAFB2120FDF76D
:1041D00015F80598407E012808D000250A2000F037
:1041E00025FA6D1CEDB2062DF8D306250598C17F82
:1041F000012908D0017F01292BD0407F012829D037
:104200003C20FCF7C5FC684646810598C17C012925
:1042100021D0807C01281FD0032069468881962107
:104220006846C1813A210182FDF70AF9074602A8D2
:10423000FCF7CEFA0090FDF703F97D21C01BC90001
:1042400088420AD99DA0FFF745F854E159E15BE1A6
:104250005CE143E144E145E147E148E1001002400F
:10426000496E646F6F72206D61696E20656E746552
:104270007265640D0A0000002E2E2F5372632F6D9D
:1042800061696E2E630000000004004849525F47D8
:10429000657444617461204572726F720D0A00008A
:1042A0004952206D616E75616C206469722072657F
:1042B0006365697665642C20636F6E74726F6C2021
:1042C00073746570206D6F746F720D0A00000000CA
:1042D00043572031302073747065730D0A0000005D
:1042E0004343572031302073747065730D0A00000A
:1042F0002D2D2D2D2D2D2D2D2D2D2D2D2D2D2D2DEE
:104300002D2D2D0D0A00000049525F476574446150
:104310007461204F4B0D0A007365745F74656D7096
:10432000203D2025640D0A00626F64795F73656E1D
:1043300073203D2025640D0A00000000414D00005F
:10434000504D000063757274696D65203D202573C2
:1043500020253032643A253032640D0A0000000016
:10436000706F7765725F656E203D2025640D0A00D1
:10437000736C6565705F656E203D2025640D0A00D5
:104380004142436F6465203D2025640D0A00000012
:104390004F4E00004F4646006F6E74696D652045B4
:1043A0006E203D2025732C20257320253032643A61
:1043B000253032640D0A00006F666674696D6520F1
:1043C000456E203D2025732C202573202530326436
:1043D0003A253032640D0A00686F75725F6F666649
:1043E0005F656E203D2025642C20686F7572203D2E
:1043F0002025640D0A00000046756E6374696F6EB7
:104400002C207761726D203D2025642C20636F6F16
:104410006C203D2025642C20647279203D20256489
:104420002C2066616E203D2025642C206175746F00
:10443000203D2025640D0A00616972636C65616E20
:104440005F656E203D2025640D0A000064697220BE
:104450006175746F203D2025642C206D616E75613F
:104460006C203D2025640D0A000000006175746F0A
:104470005F74656D70207570203D2025642C20646C
:104480006F776E203D2025640D0A000066616E2066
:104490006175746F203D2025642C20686967682051
:1044A0003D2025642C206D6964203D2025642C204E
:1044B0006C6F77203D2025640D0A0000494E5F4F48
:1044C00055545F5445535420547853656E6420749A
:1044D000696D656F75740D0A00000000502090E64C
:1044E00046208EE66846868199E6022095E6009889
:1044F000022800D19BE66846418A0DA0FEF7EAFE3D
:104500005DE56846868145E6022041E6009802287E
:1045100000D147E653E5002CF2D0FCF791FF0A9951
:10452000411AFF20F5308142EAD3002447E500001C
:104530007374436F6D6D5478446174612E753136B8
:10454000435243203D20307825780D0A00000000BA
:10455000F8B5060064D00122324D9702394628464C
:10456000FCF768FF002443E0002204212E48FCF7FA
:1045700061FF0A20FCF742FE0122D1022846FCF727
:1045800059FF0A20FCF73AFE002239462846FCF77C
:1045900051FF0A20FCF732FE012211032846FCF7E6
:1045A00049FF0A20FCF72AFE01210022C902284601
:1045B000FCF740FF0A20FCF721FE012204211A48E3
:1045C000FCF738FF0A20FCF719FE0121002209033D
:1045D0002846FCF72FFF0A20FCF710FE012239467F
:1045E0002846FCF727FF0A20FCF708FE641CA4B24B
:1045F000B442B9D3002204210B48FCF71BFF012170
:10460000002209032846FCF715FF01210022C902F8
:104610002846FCF70FFF002239462846FCF70AFF20
:10462000F8BD000000080048000C0048F8B506007E
:1046300066D0344F012204213846FCF7FBFE0024EB
:10464000314D44E00121002289022846FCF7F2FEA8
:104650000A20FCF7D3FD012211032846FCF7EAFEED
:104660000A20FCF7CBFD002204213846FCF7E2FECD
:104670000A20FCF7C3FD0122D1022846FCF7DAFE2E
:104680000A20FCF7BBFD0121002209032846FCF7A4
:10469000D1FE0A20FCF7B2FD012291022846FCF768
:1046A000C9FE0A20FCF7AAFD01210022C902284602
:1046B000FCF7C0FE0A20FCF7A1FD012204213846C8
:1046C000FCF7B8FE0A20FCF799FD641CA4B2B442C2
:1046D000B8D3002204213846FCF7ACFE01210022A9
:1046E00009032846FCF7A6FE01210022C90228463C
:1046F000FCF7A0FE0121002289022846FCF79AFE61
:10470000F8BD0000000C0048000800480000000050
:104710000000000001020304060708090000000071
:10472000010203043F065B4F666D7D077F6F00004B
:1047300050470008000000201C0000006C350008F5
:104740006C4700081C0000209C0B00007C35000812
:104750000000000000127A000000000000000000CD
:0C4760000000000000000000000000004D
:04000005080000B936
:00000001FF
